{
  "contractName": "Fruits",
  "abi": [
    {
      "inputs": [
        {
          "internalType": "string",
          "name": "fruitName",
          "type": "string"
        }
      ],
      "name": "addFruit",
      "outputs": [],
      "stateMutability": "nonpayable",
      "type": "function"
    },
    {
      "inputs": [
        {
          "internalType": "uint256",
          "name": "fruitIndex",
          "type": "uint256"
        },
        {
          "internalType": "string",
          "name": "newFruitName",
          "type": "string"
        }
      ],
      "name": "updateFruit",
      "outputs": [
        {
          "internalType": "bool",
          "name": "",
          "type": "bool"
        }
      ],
      "stateMutability": "nonpayable",
      "type": "function"
    },
    {
      "inputs": [
        {
          "internalType": "uint256",
          "name": "fruitIndex",
          "type": "uint256"
        }
      ],
      "name": "deleteFruit",
      "outputs": [
        {
          "internalType": "bool",
          "name": "",
          "type": "bool"
        }
      ],
      "stateMutability": "nonpayable",
      "type": "function"
    },
    {
      "inputs": [],
      "name": "getFruits",
      "outputs": [
        {
          "internalType": "string[]",
          "name": "",
          "type": "string[]"
        }
      ],
      "stateMutability": "view",
      "type": "function",
      "constant": true
    }
  ],
  "bytecode": "0x608060405234801561001057600080fd5b50610ce1806100206000396000f3fe608060405234801561001057600080fd5b506004361061004c5760003560e01c806324050cd9146100515780639094f27f1461006d578063e6958cf71461009d578063f8202be3146100bb575b600080fd5b61006b600480360381019061006691906104dc565b6100eb565b005b6100876004803603810190610082919061055b565b610123565b60405161009491906105a3565b60405180910390f35b6100a56101fd565b6040516100b291906106ff565b60405180910390f35b6100d560048036038101906100d09190610721565b6102d6565b6040516100e291906105a3565b60405180910390f35b60008190806001815401808255809150506001900390600052602060002001600090919091909150908161011f9190610989565b5050565b60008160008054905011156101f35760008290505b600160008054905061014a9190610a8a565b8110156101b95760006001826101609190610abe565b8154811061017157610170610af2565b5b906000526020600020016000828154811061018f5761018e610af2565b5b9060005260206000200190816101a59190610b4c565b5080806101b190610c34565b915050610138565b5060008054806101cc576101cb610c7c565b5b6001900381819060005260206000200160006101e89190610325565b9055600190506101f8565b600090505b919050565b60606000805480602002602001604051908101604052809291908181526020016000905b828210156102cd578382906000526020600020018054610240906107ac565b80601f016020809104026020016040519081016040528092919081815260200182805461026c906107ac565b80156102b95780601f1061028e576101008083540402835291602001916102b9565b820191906000526020600020905b81548152906001019060200180831161029c57829003601f168201915b505050505081526020019060010190610221565b50505050905090565b600082600080549050111561031a5781600084815481106102fa576102f9610af2565b5b9060005260206000200190816103109190610989565b506001905061031f565b600090505b92915050565b508054610331906107ac565b6000825580601f106103435750610362565b601f0160209004906000526020600020908101906103619190610365565b5b50565b5b8082111561037e576000816000905550600101610366565b5090565b6000604051905090565b600080fd5b600080fd5b600080fd5b600080fd5b6000601f19601f8301169050919050565b7f4e487b7100000000000000000000000000000000000000000000000000000000600052604160045260246000fd5b6103e9826103a0565b810181811067ffffffffffffffff82111715610408576104076103b1565b5b80604052505050565b600061041b610382565b905061042782826103e0565b919050565b600067ffffffffffffffff821115610447576104466103b1565b5b610450826103a0565b9050602081019050919050565b82818337600083830152505050565b600061047f61047a8461042c565b610411565b90508281526020810184848401111561049b5761049a61039b565b5b6104a684828561045d565b509392505050565b600082601f8301126104c3576104c2610396565b5b81356104d384826020860161046c565b91505092915050565b6000602082840312156104f2576104f161038c565b5b600082013567ffffffffffffffff8111156105105761050f610391565b5b61051c848285016104ae565b91505092915050565b6000819050919050565b61053881610525565b811461054357600080fd5b50565b6000813590506105558161052f565b92915050565b6000602082840312156105715761057061038c565b5b600061057f84828501610546565b91505092915050565b60008115159050919050565b61059d81610588565b82525050565b60006020820190506105b86000830184610594565b92915050565b600081519050919050565b600082825260208201905092915050565b6000819050602082019050919050565b600081519050919050565b600082825260208201905092915050565b60005b83811015610624578082015181840152602081019050610609565b60008484015250505050565b600061063b826105ea565b61064581856105f5565b9350610655818560208601610606565b61065e816103a0565b840191505092915050565b60006106758383610630565b905092915050565b6000602082019050919050565b6000610695826105be565b61069f81856105c9565b9350836020820285016106b1856105da565b8060005b858110156106ed57848403895281516106ce8582610669565b94506106d98361067d565b925060208a019950506001810190506106b5565b50829750879550505050505092915050565b60006020820190508181036000830152610719818461068a565b905092915050565b600080604083850312156107385761073761038c565b5b600061074685828601610546565b925050602083013567ffffffffffffffff81111561076757610766610391565b5b610773858286016104ae565b9150509250929050565b7f4e487b7100000000000000000000000000000000000000000000000000000000600052602260045260246000fd5b600060028204905060018216806107c457607f821691505b6020821081036107d7576107d661077d565b5b50919050565b60008190508160005260206000209050919050565b60006020601f8301049050919050565b600082821b905092915050565b60006008830261083f7fffffffffffffffffffffffffffffffffffffffffffffffffffffffffffffffff82610802565b6108498683610802565b95508019841693508086168417925050509392505050565b6000819050919050565b600061088661088161087c84610525565b610861565b610525565b9050919050565b6000819050919050565b6108a08361086b565b6108b46108ac8261088d565b84845461080f565b825550505050565b600090565b6108c96108bc565b6108d4818484610897565b505050565b5b818110156108f8576108ed6000826108c1565b6001810190506108da565b5050565b601f82111561093d5761090e816107dd565b610917846107f2565b81016020851015610926578190505b61093a610932856107f2565b8301826108d9565b50505b505050565b600082821c905092915050565b600061096060001984600802610942565b1980831691505092915050565b6000610979838361094f565b9150826002028217905092915050565b610992826105ea565b67ffffffffffffffff8111156109ab576109aa6103b1565b5b6109b582546107ac565b6109c08282856108fc565b600060209050601f8311600181146109f357600084156109e1578287015190505b6109eb858261096d565b865550610a53565b601f198416610a01866107dd565b60005b82811015610a2957848901518255600182019150602085019450602081019050610a04565b86831015610a465784890151610a42601f89168261094f565b8355505b6001600288020188555050505b505050505050565b7f4e487b7100000000000000000000000000000000000000000000000000000000600052601160045260246000fd5b6000610a9582610525565b9150610aa083610525565b9250828203905081811115610ab857610ab7610a5b565b5b92915050565b6000610ac982610525565b9150610ad483610525565b9250828201905080821115610aec57610aeb610a5b565b5b92915050565b7f4e487b7100000000000000000000000000000000000000000000000000000000600052603260045260246000fd5b600081549050610b30816107ac565b9050919050565b60008190508160005260206000209050919050565b818103610b5a575050610c32565b610b6382610b21565b67ffffffffffffffff811115610b7c57610b7b6103b1565b5b610b8682546107ac565b610b918282856108fc565b6000601f831160018114610bc05760008415610bae578287015490505b610bb8858261096d565b865550610c2b565b601f198416610bce87610b37565b9650610bd9866107dd565b60005b82811015610c0157848901548255600182019150600185019450602081019050610bdc565b86831015610c1e5784890154610c1a601f89168261094f565b8355505b6001600288020188555050505b5050505050505b565b6000610c3f82610525565b91507fffffffffffffffffffffffffffffffffffffffffffffffffffffffffffffffff8203610c7157610c70610a5b565b5b600182019050919050565b7f4e487b7100000000000000000000000000000000000000000000000000000000600052603160045260246000fdfea264697066735822122036a1a10ac79a8f613ef379b7ff0061cc21c478eb29c2184b59c5dc2e459e4c5064736f6c63430008110033",
  "immutableReferences": {},
  "source": "// SPDX-License-Identifier: MIT\npragma solidity >=0.4.21;\n\ncontract Fruits {\n  string[] myFruits;\n  function addFruit(string memory fruitName) public {\n      myFruits.push(fruitName);\n  }\n\n  function updateFruit(uint fruitIndex, string memory newFruitName) public returns (bool) {\n      if(myFruits.length > fruitIndex){\n          myFruits[fruitIndex] = newFruitName;\n          return true;\n      }\n      return false;\n  }\n\n  function deleteFruit(uint fruitIndex) public returns (bool) {\n      if(myFruits.length > fruitIndex){\n          for(uint i=fruitIndex; i < myFruits.length-1; i++){\n              myFruits[i] = myFruits[i+1];\n          }\n\n          myFruits.pop();\n\n          return true;\n      }\n      return false;\n  }\n\n  function getFruits() public view returns (string[] memory) {\n      return myFruits;\n  }\n}",
  "sourcePath": "/Users/kalski/github/junction_contracts/contracts/Fruits.sol",
  "compiler": {
    "name": "solc",
    "version": "0.8.17+commit.8df45f5f.Emscripten.clang"
  },
  "schemaVersion": "3.4.10",
  "updatedAt": "2022-11-05T07:55:18.620Z",
  "networkType": "ethereum",
  "devdoc": {
    "kind": "dev",
    "methods": {},
    "version": 1
  },
  "userdoc": {
    "kind": "user",
    "methods": {},
    "version": 1
  }
}