{
  "contractName": "SoulBoundToken",
  "abi": [
    {
      "inputs": [
        {
          "internalType": "string",
          "name": "name_",
          "type": "string"
        },
        {
          "internalType": "string",
          "name": "symbol_",
          "type": "string"
        }
      ],
      "stateMutability": "nonpayable",
      "type": "constructor"
    },
    {
      "anonymous": false,
      "inputs": [
        {
          "indexed": true,
          "internalType": "address",
          "name": "owner",
          "type": "address"
        },
        {
          "indexed": true,
          "internalType": "address",
          "name": "approved",
          "type": "address"
        },
        {
          "indexed": true,
          "internalType": "uint256",
          "name": "tokenId",
          "type": "uint256"
        }
      ],
      "name": "Approval",
      "type": "event"
    },
    {
      "anonymous": false,
      "inputs": [
        {
          "indexed": true,
          "internalType": "address",
          "name": "owner",
          "type": "address"
        },
        {
          "indexed": true,
          "internalType": "address",
          "name": "operator",
          "type": "address"
        },
        {
          "indexed": false,
          "internalType": "bool",
          "name": "approved",
          "type": "bool"
        }
      ],
      "name": "ApprovalForAll",
      "type": "event"
    },
    {
      "anonymous": false,
      "inputs": [
        {
          "indexed": true,
          "internalType": "address",
          "name": "previousOwner",
          "type": "address"
        },
        {
          "indexed": true,
          "internalType": "address",
          "name": "newOwner",
          "type": "address"
        }
      ],
      "name": "OwnershipTransferred",
      "type": "event"
    },
    {
      "anonymous": false,
      "inputs": [
        {
          "indexed": true,
          "internalType": "address",
          "name": "from",
          "type": "address"
        },
        {
          "indexed": true,
          "internalType": "address",
          "name": "to",
          "type": "address"
        },
        {
          "indexed": true,
          "internalType": "uint256",
          "name": "tokenId",
          "type": "uint256"
        }
      ],
      "name": "Transfer",
      "type": "event"
    },
    {
      "inputs": [
        {
          "internalType": "address",
          "name": "to",
          "type": "address"
        },
        {
          "internalType": "uint256",
          "name": "tokenId",
          "type": "uint256"
        }
      ],
      "name": "approve",
      "outputs": [],
      "stateMutability": "nonpayable",
      "type": "function"
    },
    {
      "inputs": [
        {
          "internalType": "address",
          "name": "owner",
          "type": "address"
        }
      ],
      "name": "balanceOf",
      "outputs": [
        {
          "internalType": "uint256",
          "name": "",
          "type": "uint256"
        }
      ],
      "stateMutability": "view",
      "type": "function",
      "constant": true
    },
    {
      "inputs": [
        {
          "internalType": "uint256",
          "name": "tokenId",
          "type": "uint256"
        }
      ],
      "name": "getApproved",
      "outputs": [
        {
          "internalType": "address",
          "name": "",
          "type": "address"
        }
      ],
      "stateMutability": "view",
      "type": "function",
      "constant": true
    },
    {
      "inputs": [
        {
          "internalType": "address",
          "name": "owner",
          "type": "address"
        },
        {
          "internalType": "address",
          "name": "operator",
          "type": "address"
        }
      ],
      "name": "isApprovedForAll",
      "outputs": [
        {
          "internalType": "bool",
          "name": "",
          "type": "bool"
        }
      ],
      "stateMutability": "view",
      "type": "function",
      "constant": true
    },
    {
      "inputs": [],
      "name": "name",
      "outputs": [
        {
          "internalType": "string",
          "name": "",
          "type": "string"
        }
      ],
      "stateMutability": "view",
      "type": "function",
      "constant": true
    },
    {
      "inputs": [],
      "name": "owner",
      "outputs": [
        {
          "internalType": "address",
          "name": "",
          "type": "address"
        }
      ],
      "stateMutability": "view",
      "type": "function",
      "constant": true
    },
    {
      "inputs": [
        {
          "internalType": "uint256",
          "name": "tokenId",
          "type": "uint256"
        }
      ],
      "name": "ownerOf",
      "outputs": [
        {
          "internalType": "address",
          "name": "",
          "type": "address"
        }
      ],
      "stateMutability": "view",
      "type": "function",
      "constant": true
    },
    {
      "inputs": [],
      "name": "renounceOwnership",
      "outputs": [],
      "stateMutability": "nonpayable",
      "type": "function"
    },
    {
      "inputs": [
        {
          "internalType": "address",
          "name": "from",
          "type": "address"
        },
        {
          "internalType": "address",
          "name": "to",
          "type": "address"
        },
        {
          "internalType": "uint256",
          "name": "tokenId",
          "type": "uint256"
        }
      ],
      "name": "safeTransferFrom",
      "outputs": [],
      "stateMutability": "nonpayable",
      "type": "function"
    },
    {
      "inputs": [
        {
          "internalType": "address",
          "name": "from",
          "type": "address"
        },
        {
          "internalType": "address",
          "name": "to",
          "type": "address"
        },
        {
          "internalType": "uint256",
          "name": "tokenId",
          "type": "uint256"
        },
        {
          "internalType": "bytes",
          "name": "data",
          "type": "bytes"
        }
      ],
      "name": "safeTransferFrom",
      "outputs": [],
      "stateMutability": "nonpayable",
      "type": "function"
    },
    {
      "inputs": [
        {
          "internalType": "address",
          "name": "operator",
          "type": "address"
        },
        {
          "internalType": "bool",
          "name": "approved",
          "type": "bool"
        }
      ],
      "name": "setApprovalForAll",
      "outputs": [],
      "stateMutability": "nonpayable",
      "type": "function"
    },
    {
      "inputs": [
        {
          "internalType": "bytes4",
          "name": "interfaceId",
          "type": "bytes4"
        }
      ],
      "name": "supportsInterface",
      "outputs": [
        {
          "internalType": "bool",
          "name": "",
          "type": "bool"
        }
      ],
      "stateMutability": "view",
      "type": "function",
      "constant": true
    },
    {
      "inputs": [],
      "name": "symbol",
      "outputs": [
        {
          "internalType": "string",
          "name": "",
          "type": "string"
        }
      ],
      "stateMutability": "view",
      "type": "function",
      "constant": true
    },
    {
      "inputs": [
        {
          "internalType": "address",
          "name": "from",
          "type": "address"
        },
        {
          "internalType": "address",
          "name": "to",
          "type": "address"
        },
        {
          "internalType": "uint256",
          "name": "tokenId",
          "type": "uint256"
        }
      ],
      "name": "transferFrom",
      "outputs": [],
      "stateMutability": "nonpayable",
      "type": "function"
    },
    {
      "inputs": [
        {
          "internalType": "address",
          "name": "newOwner",
          "type": "address"
        }
      ],
      "name": "transferOwnership",
      "outputs": [],
      "stateMutability": "nonpayable",
      "type": "function"
    },
    {
      "inputs": [
        {
          "internalType": "address",
          "name": "to",
          "type": "address"
        },
        {
          "internalType": "string",
          "name": "uri",
          "type": "string"
        }
      ],
      "name": "safeMint",
      "outputs": [],
      "stateMutability": "nonpayable",
      "type": "function"
    },
    {
      "inputs": [
        {
          "internalType": "uint256",
          "name": "tokenId",
          "type": "uint256"
        }
      ],
      "name": "revokeCertificate",
      "outputs": [],
      "stateMutability": "nonpayable",
      "type": "function"
    },
    {
      "inputs": [
        {
          "internalType": "uint256",
          "name": "tokenId",
          "type": "uint256"
        }
      ],
      "name": "getTokenIssuer",
      "outputs": [
        {
          "internalType": "address",
          "name": "",
          "type": "address"
        }
      ],
      "stateMutability": "view",
      "type": "function",
      "constant": true
    },
    {
      "inputs": [
        {
          "internalType": "address",
          "name": "Issuer",
          "type": "address"
        }
      ],
      "name": "getTokensIssuedByAddress",
      "outputs": [
        {
          "internalType": "uint256[]",
          "name": "",
          "type": "uint256[]"
        }
      ],
      "stateMutability": "view",
      "type": "function",
      "constant": true
    },
    {
      "inputs": [
        {
          "internalType": "address",
          "name": "tokenOwner",
          "type": "address"
        }
      ],
      "name": "getURIsFromAddress",
      "outputs": [
        {
          "internalType": "string[]",
          "name": "",
          "type": "string[]"
        }
      ],
      "stateMutability": "view",
      "type": "function",
      "constant": true
    },
    {
      "inputs": [
        {
          "internalType": "uint256",
          "name": "tokenId",
          "type": "uint256"
        }
      ],
      "name": "tokenURI",
      "outputs": [
        {
          "internalType": "string",
          "name": "",
          "type": "string"
        }
      ],
      "stateMutability": "view",
      "type": "function",
      "constant": true
    }
  ],
  "bytecode": "0x60806040523480156200001157600080fd5b5060405162004360380380620043608339818101604052810190620000379190620002e8565b818181600090816200004a9190620005b8565b5080600190816200005c9190620005b8565b5050506200007f620000736200008760201b60201c565b6200008f60201b60201c565b50506200069f565b600033905090565b6000600760009054906101000a900473ffffffffffffffffffffffffffffffffffffffff16905081600760006101000a81548173ffffffffffffffffffffffffffffffffffffffff021916908373ffffffffffffffffffffffffffffffffffffffff1602179055508173ffffffffffffffffffffffffffffffffffffffff168173ffffffffffffffffffffffffffffffffffffffff167f8be0079c531659141344cd1fd0a4f28419497f9722a3daafe3b4186f6b6457e060405160405180910390a35050565b6000604051905090565b600080fd5b600080fd5b600080fd5b600080fd5b6000601f19601f8301169050919050565b7f4e487b7100000000000000000000000000000000000000000000000000000000600052604160045260246000fd5b620001be8262000173565b810181811067ffffffffffffffff82111715620001e057620001df62000184565b5b80604052505050565b6000620001f562000155565b9050620002038282620001b3565b919050565b600067ffffffffffffffff82111562000226576200022562000184565b5b620002318262000173565b9050602081019050919050565b60005b838110156200025e57808201518184015260208101905062000241565b60008484015250505050565b6000620002816200027b8462000208565b620001e9565b905082815260208101848484011115620002a0576200029f6200016e565b5b620002ad8482856200023e565b509392505050565b600082601f830112620002cd57620002cc62000169565b5b8151620002df8482602086016200026a565b91505092915050565b600080604083850312156200030257620003016200015f565b5b600083015167ffffffffffffffff81111562000323576200032262000164565b5b6200033185828601620002b5565b925050602083015167ffffffffffffffff81111562000355576200035462000164565b5b6200036385828601620002b5565b9150509250929050565b600081519050919050565b7f4e487b7100000000000000000000000000000000000000000000000000000000600052602260045260246000fd5b60006002820490506001821680620003c057607f821691505b602082108103620003d657620003d562000378565b5b50919050565b60008190508160005260206000209050919050565b60006020601f8301049050919050565b600082821b905092915050565b600060088302620004407fffffffffffffffffffffffffffffffffffffffffffffffffffffffffffffffff8262000401565b6200044c868362000401565b95508019841693508086168417925050509392505050565b6000819050919050565b6000819050919050565b600062000499620004936200048d8462000464565b6200046e565b62000464565b9050919050565b6000819050919050565b620004b58362000478565b620004cd620004c482620004a0565b8484546200040e565b825550505050565b600090565b620004e4620004d5565b620004f1818484620004aa565b505050565b5b8181101562000519576200050d600082620004da565b600181019050620004f7565b5050565b601f82111562000568576200053281620003dc565b6200053d84620003f1565b810160208510156200054d578190505b620005656200055c85620003f1565b830182620004f6565b50505b505050565b600082821c905092915050565b60006200058d600019846008026200056d565b1980831691505092915050565b6000620005a883836200057a565b9150826002028217905092915050565b620005c3826200036d565b67ffffffffffffffff811115620005df57620005de62000184565b5b620005eb8254620003a7565b620005f88282856200051d565b600060209050601f8311600181146200063057600084156200061b578287015190505b6200062785826200059a565b86555062000697565b601f1984166200064086620003dc565b60005b828110156200066a5784890151825560018201915060208501945060208101905062000643565b868310156200068a578489015162000686601f8916826200057a565b8355505b6001600288020188555050505b505050505050565b613cb180620006af6000396000f3fe608060405234801561001057600080fd5b50600436106101375760003560e01c806370a08231116100b8578063b88d4fde1161007c578063b88d4fde1461034c578063bec6501514610368578063c87b56dd14610398578063d204c45e146103c8578063e985e9c5146103e4578063f2fde38b1461041457610137565b806370a08231146102ba578063715018a6146102ea5780638da5cb5b146102f457806395d89b4114610312578063a22cb4651461033057610137565b806323b872dd116100ff57806323b872dd146101f257806342842e0e1461020e5780634e2488901461022a5780635e7844eb1461025a5780636352211e1461028a57610137565b806301ffc9a71461013c57806306f5497e1461016c57806306fdde0314610188578063081812fc146101a6578063095ea7b3146101d6575b600080fd5b61015660048036038101906101519190612689565b610430565b60405161016391906126d1565b60405180910390f35b61018660048036038101906101819190612722565b610512565b005b6101906109f9565b60405161019d91906127df565b60405180910390f35b6101c060048036038101906101bb9190612722565b610a8b565b6040516101cd9190612842565b60405180910390f35b6101f060048036038101906101eb9190612889565b610ad1565b005b61020c600480360381019061020791906128c9565b610be8565b005b610228600480360381019061022391906128c9565b610c48565b005b610244600480360381019061023f919061291c565b610c68565b6040516102519190612a55565b60405180910390f35b610274600480360381019061026f919061291c565b610dea565b6040516102819190612b35565b60405180910390f35b6102a4600480360381019061029f9190612722565b610e81565b6040516102b19190612842565b60405180910390f35b6102d460048036038101906102cf919061291c565b610f32565b6040516102e19190612b66565b60405180910390f35b6102f2610fe9565b005b6102fc610ffd565b6040516103099190612842565b60405180910390f35b61031a611027565b60405161032791906127df565b60405180910390f35b61034a60048036038101906103459190612bad565b6110b9565b005b61036660048036038101906103619190612d22565b6110cf565b005b610382600480360381019061037d9190612722565b611131565b60405161038f9190612842565b60405180910390f35b6103b260048036038101906103ad9190612722565b61116e565b6040516103bf91906127df565b60405180910390f35b6103e260048036038101906103dd9190612e46565b611180565b005b6103fe60048036038101906103f99190612ea2565b6112cf565b60405161040b91906126d1565b60405180910390f35b61042e6004803603810190610429919061291c565b611363565b005b60007f80ac58cd000000000000000000000000000000000000000000000000000000007bffffffffffffffffffffffffffffffffffffffffffffffffffffffff1916827bffffffffffffffffffffffffffffffffffffffffffffffffffffffff191614806104fb57507f5b5e139f000000000000000000000000000000000000000000000000000000007bffffffffffffffffffffffffffffffffffffffffffffffffffffffff1916827bffffffffffffffffffffffffffffffffffffffffffffffffffffffff1916145b8061050b575061050a826113e6565b5b9050919050565b61051b81611450565b6000600b600083815260200190815260200160002060009054906101000a900473ffffffffffffffffffffffffffffffffffffffff169050600b600083815260200190815260200160002060006101000a81549073ffffffffffffffffffffffffffffffffffffffff021916905560005b600c60008373ffffffffffffffffffffffffffffffffffffffff1673ffffffffffffffffffffffffffffffffffffffff168152602001908152602001600020805490508110156107595782600c60008473ffffffffffffffffffffffffffffffffffffffff1673ffffffffffffffffffffffffffffffffffffffff168152602001908152602001600020828154811061062857610627612ee2565b5b90600052602060002001540361074657600c60008373ffffffffffffffffffffffffffffffffffffffff1673ffffffffffffffffffffffffffffffffffffffff1681526020019081526020016000206001600c60008573ffffffffffffffffffffffffffffffffffffffff1673ffffffffffffffffffffffffffffffffffffffff168152602001908152602001600020805490506106c69190612f40565b815481106106d7576106d6612ee2565b5b9060005260206000200154600c60008473ffffffffffffffffffffffffffffffffffffffff1673ffffffffffffffffffffffffffffffffffffffff168152602001908152602001600020828154811061073357610732612ee2565b5b9060005260206000200181905550610759565b808061075190612f74565b91505061058c565b50600c60008273ffffffffffffffffffffffffffffffffffffffff1673ffffffffffffffffffffffffffffffffffffffff1681526020019081526020016000208054806107a9576107a8612fbc565b5b6001900381819060005260206000200160009055905560005b600a60003373ffffffffffffffffffffffffffffffffffffffff1673ffffffffffffffffffffffffffffffffffffffff1681526020019081526020016000208054905081101561098f5782600a60003373ffffffffffffffffffffffffffffffffffffffff1673ffffffffffffffffffffffffffffffffffffffff168152602001908152602001600020828154811061085e5761085d612ee2565b5b90600052602060002001540361097c57600a60003373ffffffffffffffffffffffffffffffffffffffff1673ffffffffffffffffffffffffffffffffffffffff1681526020019081526020016000206001600a60003373ffffffffffffffffffffffffffffffffffffffff1673ffffffffffffffffffffffffffffffffffffffff168152602001908152602001600020805490506108fc9190612f40565b8154811061090d5761090c612ee2565b5b9060005260206000200154600a60003373ffffffffffffffffffffffffffffffffffffffff1673ffffffffffffffffffffffffffffffffffffffff168152602001908152602001600020828154811061096957610968612ee2565b5b906000526020600020018190555061098f565b808061098790612f74565b9150506107c2565b50600a60003373ffffffffffffffffffffffffffffffffffffffff1673ffffffffffffffffffffffffffffffffffffffff1681526020019081526020016000208054806109df576109de612fbc565b5b600190038181906000526020600020016000905590555050565b606060008054610a089061301a565b80601f0160208091040260200160405190810160405280929190818152602001828054610a349061301a565b8015610a815780601f10610a5657610100808354040283529160200191610a81565b820191906000526020600020905b815481529060010190602001808311610a6457829003601f168201915b5050505050905090565b6000610a968261145c565b6004600083815260200190815260200160002060009054906101000a900473ffffffffffffffffffffffffffffffffffffffff169050919050565b6000610adc82610e81565b90508073ffffffffffffffffffffffffffffffffffffffff168373ffffffffffffffffffffffffffffffffffffffff1603610b4c576040517f08c379a0000000000000000000000000000000000000000000000000000000008152600401610b43906130bd565b60405180910390fd5b8073ffffffffffffffffffffffffffffffffffffffff16610b6b6114a7565b73ffffffffffffffffffffffffffffffffffffffff161480610b9a5750610b9981610b946114a7565b6112cf565b5b610bd9576040517f08c379a0000000000000000000000000000000000000000000000000000000008152600401610bd09061314f565b60405180910390fd5b610be383836114af565b505050565b610bf9610bf36114a7565b82611568565b610c38576040517f08c379a0000000000000000000000000000000000000000000000000000000008152600401610c2f906131e1565b60405180910390fd5b610c438383836115fd565b505050565b610c63838383604051806020016040528060008152506110cf565b505050565b60606000600a60008473ffffffffffffffffffffffffffffffffffffffff1673ffffffffffffffffffffffffffffffffffffffff1681526020019081526020016000208054905067ffffffffffffffff811115610cc857610cc7612bf7565b5b604051908082528060200260200182016040528015610cfb57816020015b6060815260200190600190039081610ce65790505b50905060005b600a60008573ffffffffffffffffffffffffffffffffffffffff1673ffffffffffffffffffffffffffffffffffffffff16815260200190815260200160002080549050811015610de057610daf600a60008673ffffffffffffffffffffffffffffffffffffffff1673ffffffffffffffffffffffffffffffffffffffff1681526020019081526020016000208281548110610d9f57610d9e612ee2565b5b906000526020600020015461116e565b828281518110610dc257610dc1612ee2565b5b60200260200101819052508080610dd890612f74565b915050610d01565b5080915050919050565b6060600c60008373ffffffffffffffffffffffffffffffffffffffff1673ffffffffffffffffffffffffffffffffffffffff168152602001908152602001600020805480602002602001604051908101604052809291908181526020018280548015610e7557602002820191906000526020600020905b815481526020019060010190808311610e61575b50505050509050919050565b6000806002600084815260200190815260200160002060009054906101000a900473ffffffffffffffffffffffffffffffffffffffff169050600073ffffffffffffffffffffffffffffffffffffffff168173ffffffffffffffffffffffffffffffffffffffff1603610f29576040517f08c379a0000000000000000000000000000000000000000000000000000000008152600401610f209061324d565b60405180910390fd5b80915050919050565b60008073ffffffffffffffffffffffffffffffffffffffff168273ffffffffffffffffffffffffffffffffffffffff1603610fa2576040517f08c379a0000000000000000000000000000000000000000000000000000000008152600401610f99906132df565b60405180910390fd5b600360008373ffffffffffffffffffffffffffffffffffffffff1673ffffffffffffffffffffffffffffffffffffffff168152602001908152602001600020549050919050565b610ff1611863565b610ffb60006118e1565b565b6000600760009054906101000a900473ffffffffffffffffffffffffffffffffffffffff16905090565b6060600180546110369061301a565b80601f01602080910402602001604051908101604052809291908181526020018280546110629061301a565b80156110af5780601f10611084576101008083540402835291602001916110af565b820191906000526020600020905b81548152906001019060200180831161109257829003601f168201915b5050505050905090565b6110cb6110c46114a7565b83836119a7565b5050565b6110e06110da6114a7565b83611568565b61111f576040517f08c379a0000000000000000000000000000000000000000000000000000000008152600401611116906131e1565b60405180910390fd5b61112b84848484611b13565b50505050565b6000600b600083815260200190815260200160002060009054906101000a900473ffffffffffffffffffffffffffffffffffffffff169050919050565b606061117982611b6f565b9050919050565b600061118c6008611c81565b90506111986008611c8f565b6111a28382611ca5565b6111ac8183611cc3565b33600b600083815260200190815260200160002060006101000a81548173ffffffffffffffffffffffffffffffffffffffff021916908373ffffffffffffffffffffffffffffffffffffffff160217905550600c60003373ffffffffffffffffffffffffffffffffffffffff1673ffffffffffffffffffffffffffffffffffffffff168152602001908152602001600020819080600181540180825580915050600190039060005260206000200160009091909190915055600a60008473ffffffffffffffffffffffffffffffffffffffff1673ffffffffffffffffffffffffffffffffffffffff168152602001908152602001600020819080600181540180825580915050600190039060005260206000200160009091909190915055505050565b6000600560008473ffffffffffffffffffffffffffffffffffffffff1673ffffffffffffffffffffffffffffffffffffffff16815260200190815260200160002060008373ffffffffffffffffffffffffffffffffffffffff1673ffffffffffffffffffffffffffffffffffffffff16815260200190815260200160002060009054906101000a900460ff16905092915050565b61136b611863565b600073ffffffffffffffffffffffffffffffffffffffff168173ffffffffffffffffffffffffffffffffffffffff16036113da576040517f08c379a00000000000000000000000000000000000000000000000000000000081526004016113d190613371565b60405180910390fd5b6113e3816118e1565b50565b60007f01ffc9a7000000000000000000000000000000000000000000000000000000007bffffffffffffffffffffffffffffffffffffffffffffffffffffffff1916827bffffffffffffffffffffffffffffffffffffffffffffffffffffffff1916149050919050565b61145981611d30565b50565b61146581611d83565b6114a4576040517f08c379a000000000000000000000000000000000000000000000000000000000815260040161149b9061324d565b60405180910390fd5b50565b600033905090565b816004600083815260200190815260200160002060006101000a81548173ffffffffffffffffffffffffffffffffffffffff021916908373ffffffffffffffffffffffffffffffffffffffff160217905550808273ffffffffffffffffffffffffffffffffffffffff1661152283610e81565b73ffffffffffffffffffffffffffffffffffffffff167f8c5be1e5ebec7d5bd14f71427d1e84f3dd0314c0f7b2291e5b200ac8c7c3b92560405160405180910390a45050565b60008061157483610e81565b90508073ffffffffffffffffffffffffffffffffffffffff168473ffffffffffffffffffffffffffffffffffffffff1614806115b657506115b581856112cf565b5b806115f457508373ffffffffffffffffffffffffffffffffffffffff166115dc84610a8b565b73ffffffffffffffffffffffffffffffffffffffff16145b91505092915050565b8273ffffffffffffffffffffffffffffffffffffffff1661161d82610e81565b73ffffffffffffffffffffffffffffffffffffffff1614611673576040517f08c379a000000000000000000000000000000000000000000000000000000000815260040161166a90613403565b60405180910390fd5b600073ffffffffffffffffffffffffffffffffffffffff168273ffffffffffffffffffffffffffffffffffffffff16036116e2576040517f08c379a00000000000000000000000000000000000000000000000000000000081526004016116d990613495565b60405180910390fd5b6116ed838383611def565b6116f86000826114af565b6001600360008573ffffffffffffffffffffffffffffffffffffffff1673ffffffffffffffffffffffffffffffffffffffff16815260200190815260200160002060008282546117489190612f40565b925050819055506001600360008473ffffffffffffffffffffffffffffffffffffffff1673ffffffffffffffffffffffffffffffffffffffff168152602001908152602001600020600082825461179f91906134b5565b92505081905550816002600083815260200190815260200160002060006101000a81548173ffffffffffffffffffffffffffffffffffffffff021916908373ffffffffffffffffffffffffffffffffffffffff160217905550808273ffffffffffffffffffffffffffffffffffffffff168473ffffffffffffffffffffffffffffffffffffffff167fddf252ad1be2c89b69c2b068fc378daa952ba7f163c4a11628f55a4df523b3ef60405160405180910390a461185e838383611edc565b505050565b61186b6114a7565b73ffffffffffffffffffffffffffffffffffffffff16611889610ffd565b73ffffffffffffffffffffffffffffffffffffffff16146118df576040517f08c379a00000000000000000000000000000000000000000000000000000000081526004016118d690613535565b60405180910390fd5b565b6000600760009054906101000a900473ffffffffffffffffffffffffffffffffffffffff16905081600760006101000a81548173ffffffffffffffffffffffffffffffffffffffff021916908373ffffffffffffffffffffffffffffffffffffffff1602179055508173ffffffffffffffffffffffffffffffffffffffff168173ffffffffffffffffffffffffffffffffffffffff167f8be0079c531659141344cd1fd0a4f28419497f9722a3daafe3b4186f6b6457e060405160405180910390a35050565b8173ffffffffffffffffffffffffffffffffffffffff168373ffffffffffffffffffffffffffffffffffffffff1603611a15576040517f08c379a0000000000000000000000000000000000000000000000000000000008152600401611a0c906135a1565b60405180910390fd5b80600560008573ffffffffffffffffffffffffffffffffffffffff1673ffffffffffffffffffffffffffffffffffffffff16815260200190815260200160002060008473ffffffffffffffffffffffffffffffffffffffff1673ffffffffffffffffffffffffffffffffffffffff16815260200190815260200160002060006101000a81548160ff0219169083151502179055508173ffffffffffffffffffffffffffffffffffffffff168373ffffffffffffffffffffffffffffffffffffffff167f17307eab39ab6107e8899845ad3d59bd9653f200f220920489ca2b5937696c3183604051611b0691906126d1565b60405180910390a3505050565b611b1e8484846115fd565b611b2a84848484611ee1565b611b69576040517f08c379a0000000000000000000000000000000000000000000000000000000008152600401611b6090613633565b60405180910390fd5b50505050565b6060611b7a8261145c565b6000600660008481526020019081526020016000208054611b9a9061301a565b80601f0160208091040260200160405190810160405280929190818152602001828054611bc69061301a565b8015611c135780601f10611be857610100808354040283529160200191611c13565b820191906000526020600020905b815481529060010190602001808311611bf657829003601f168201915b505050505090506000611c24612068565b90506000815103611c39578192505050611c7c565b600082511115611c6e578082604051602001611c5692919061368f565b60405160208183030381529060405292505050611c7c565b611c778461207f565b925050505b919050565b600081600001549050919050565b6001816000016000828254019250508190555050565b611cbf8282604051806020016040528060008152506120e7565b5050565b611ccc82611d83565b611d0b576040517f08c379a0000000000000000000000000000000000000000000000000000000008152600401611d0290613725565b60405180910390fd5b80600660008481526020019081526020016000209081611d2b91906138f1565b505050565b611d3981612142565b6000600660008381526020019081526020016000208054611d599061301a565b905014611d8057600660008281526020019081526020016000206000611d7f91906125c0565b5b50565b60008073ffffffffffffffffffffffffffffffffffffffff166002600084815260200190815260200160002060009054906101000a900473ffffffffffffffffffffffffffffffffffffffff1673ffffffffffffffffffffffffffffffffffffffff1614159050919050565b600073ffffffffffffffffffffffffffffffffffffffff168373ffffffffffffffffffffffffffffffffffffffff161480611e8d5750600073ffffffffffffffffffffffffffffffffffffffff168273ffffffffffffffffffffffffffffffffffffffff16148015611e8c57503373ffffffffffffffffffffffffffffffffffffffff168373ffffffffffffffffffffffffffffffffffffffff16145b5b611ecc576040517f08c379a0000000000000000000000000000000000000000000000000000000008152600401611ec390613a0f565b60405180910390fd5b611ed783838361225f565b505050565b505050565b6000611f028473ffffffffffffffffffffffffffffffffffffffff16612264565b1561205b578373ffffffffffffffffffffffffffffffffffffffff1663150b7a02611f2b6114a7565b8786866040518563ffffffff1660e01b8152600401611f4d9493929190613a84565b6020604051808303816000875af1925050508015611f8957506040513d601f19601f82011682018060405250810190611f869190613ae5565b60015b61200b573d8060008114611fb9576040519150601f19603f3d011682016040523d82523d6000602084013e611fbe565b606091505b506000815103612003576040517f08c379a0000000000000000000000000000000000000000000000000000000008152600401611ffa90613633565b60405180910390fd5b805181602001fd5b63150b7a0260e01b7bffffffffffffffffffffffffffffffffffffffffffffffffffffffff1916817bffffffffffffffffffffffffffffffffffffffffffffffffffffffff191614915050612060565b600190505b949350505050565b606060405180602001604052806000815250905090565b606061208a8261145c565b6000612094612068565b905060008151116120b457604051806020016040528060008152506120df565b806120be84612287565b6040516020016120cf92919061368f565b6040516020818303038152906040525b915050919050565b6120f183836123e7565b6120fe6000848484611ee1565b61213d576040517f08c379a000000000000000000000000000000000000000000000000000000000815260040161213490613633565b60405180910390fd5b505050565b600061214d82610e81565b905061215b81600084611def565b6121666000836114af565b6001600360008373ffffffffffffffffffffffffffffffffffffffff1673ffffffffffffffffffffffffffffffffffffffff16815260200190815260200160002060008282546121b69190612f40565b925050819055506002600083815260200190815260200160002060006101000a81549073ffffffffffffffffffffffffffffffffffffffff021916905581600073ffffffffffffffffffffffffffffffffffffffff168273ffffffffffffffffffffffffffffffffffffffff167fddf252ad1be2c89b69c2b068fc378daa952ba7f163c4a11628f55a4df523b3ef60405160405180910390a461225b81600084611edc565b5050565b505050565b6000808273ffffffffffffffffffffffffffffffffffffffff163b119050919050565b6060600082036122ce576040518060400160405280600181526020017f300000000000000000000000000000000000000000000000000000000000000081525090506123e2565b600082905060005b600082146123005780806122e990612f74565b915050600a826122f99190613b41565b91506122d6565b60008167ffffffffffffffff81111561231c5761231b612bf7565b5b6040519080825280601f01601f19166020018201604052801561234e5781602001600182028036833780820191505090505b5090505b600085146123db576001826123679190612f40565b9150600a856123769190613b72565b603061238291906134b5565b60f81b81838151811061239857612397612ee2565b5b60200101907effffffffffffffffffffffffffffffffffffffffffffffffffffffffffffff1916908160001a905350600a856123d49190613b41565b9450612352565b8093505050505b919050565b600073ffffffffffffffffffffffffffffffffffffffff168273ffffffffffffffffffffffffffffffffffffffff1603612456576040517f08c379a000000000000000000000000000000000000000000000000000000000815260040161244d90613bef565b60405180910390fd5b61245f81611d83565b1561249f576040517f08c379a000000000000000000000000000000000000000000000000000000000815260040161249690613c5b565b60405180910390fd5b6124ab60008383611def565b6001600360008473ffffffffffffffffffffffffffffffffffffffff1673ffffffffffffffffffffffffffffffffffffffff16815260200190815260200160002060008282546124fb91906134b5565b92505081905550816002600083815260200190815260200160002060006101000a81548173ffffffffffffffffffffffffffffffffffffffff021916908373ffffffffffffffffffffffffffffffffffffffff160217905550808273ffffffffffffffffffffffffffffffffffffffff16600073ffffffffffffffffffffffffffffffffffffffff167fddf252ad1be2c89b69c2b068fc378daa952ba7f163c4a11628f55a4df523b3ef60405160405180910390a46125bc60008383611edc565b5050565b5080546125cc9061301a565b6000825580601f106125de57506125fd565b601f0160209004906000526020600020908101906125fc9190612600565b5b50565b5b80821115612619576000816000905550600101612601565b5090565b6000604051905090565b600080fd5b600080fd5b60007fffffffff0000000000000000000000000000000000000000000000000000000082169050919050565b61266681612631565b811461267157600080fd5b50565b6000813590506126838161265d565b92915050565b60006020828403121561269f5761269e612627565b5b60006126ad84828501612674565b91505092915050565b60008115159050919050565b6126cb816126b6565b82525050565b60006020820190506126e660008301846126c2565b92915050565b6000819050919050565b6126ff816126ec565b811461270a57600080fd5b50565b60008135905061271c816126f6565b92915050565b60006020828403121561273857612737612627565b5b60006127468482850161270d565b91505092915050565b600081519050919050565b600082825260208201905092915050565b60005b8381101561278957808201518184015260208101905061276e565b60008484015250505050565b6000601f19601f8301169050919050565b60006127b18261274f565b6127bb818561275a565b93506127cb81856020860161276b565b6127d481612795565b840191505092915050565b600060208201905081810360008301526127f981846127a6565b905092915050565b600073ffffffffffffffffffffffffffffffffffffffff82169050919050565b600061282c82612801565b9050919050565b61283c81612821565b82525050565b60006020820190506128576000830184612833565b92915050565b61286681612821565b811461287157600080fd5b50565b6000813590506128838161285d565b92915050565b600080604083850312156128a05761289f612627565b5b60006128ae85828601612874565b92505060206128bf8582860161270d565b9150509250929050565b6000806000606084860312156128e2576128e1612627565b5b60006128f086828701612874565b935050602061290186828701612874565b92505060406129128682870161270d565b9150509250925092565b60006020828403121561293257612931612627565b5b600061294084828501612874565b91505092915050565b600081519050919050565b600082825260208201905092915050565b6000819050602082019050919050565b600082825260208201905092915050565b60006129918261274f565b61299b8185612975565b93506129ab81856020860161276b565b6129b481612795565b840191505092915050565b60006129cb8383612986565b905092915050565b6000602082019050919050565b60006129eb82612949565b6129f58185612954565b935083602082028501612a0785612965565b8060005b85811015612a435784840389528151612a2485826129bf565b9450612a2f836129d3565b925060208a01995050600181019050612a0b565b50829750879550505050505092915050565b60006020820190508181036000830152612a6f81846129e0565b905092915050565b600081519050919050565b600082825260208201905092915050565b6000819050602082019050919050565b612aac816126ec565b82525050565b6000612abe8383612aa3565b60208301905092915050565b6000602082019050919050565b6000612ae282612a77565b612aec8185612a82565b9350612af783612a93565b8060005b83811015612b28578151612b0f8882612ab2565b9750612b1a83612aca565b925050600181019050612afb565b5085935050505092915050565b60006020820190508181036000830152612b4f8184612ad7565b905092915050565b612b60816126ec565b82525050565b6000602082019050612b7b6000830184612b57565b92915050565b612b8a816126b6565b8114612b9557600080fd5b50565b600081359050612ba781612b81565b92915050565b60008060408385031215612bc457612bc3612627565b5b6000612bd285828601612874565b9250506020612be385828601612b98565b9150509250929050565b600080fd5b600080fd5b7f4e487b7100000000000000000000000000000000000000000000000000000000600052604160045260246000fd5b612c2f82612795565b810181811067ffffffffffffffff82111715612c4e57612c4d612bf7565b5b80604052505050565b6000612c6161261d565b9050612c6d8282612c26565b919050565b600067ffffffffffffffff821115612c8d57612c8c612bf7565b5b612c9682612795565b9050602081019050919050565b82818337600083830152505050565b6000612cc5612cc084612c72565b612c57565b905082815260208101848484011115612ce157612ce0612bf2565b5b612cec848285612ca3565b509392505050565b600082601f830112612d0957612d08612bed565b5b8135612d19848260208601612cb2565b91505092915050565b60008060008060808587031215612d3c57612d3b612627565b5b6000612d4a87828801612874565b9450506020612d5b87828801612874565b9350506040612d6c8782880161270d565b925050606085013567ffffffffffffffff811115612d8d57612d8c61262c565b5b612d9987828801612cf4565b91505092959194509250565b600067ffffffffffffffff821115612dc057612dbf612bf7565b5b612dc982612795565b9050602081019050919050565b6000612de9612de484612da5565b612c57565b905082815260208101848484011115612e0557612e04612bf2565b5b612e10848285612ca3565b509392505050565b600082601f830112612e2d57612e2c612bed565b5b8135612e3d848260208601612dd6565b91505092915050565b60008060408385031215612e5d57612e5c612627565b5b6000612e6b85828601612874565b925050602083013567ffffffffffffffff811115612e8c57612e8b61262c565b5b612e9885828601612e18565b9150509250929050565b60008060408385031215612eb957612eb8612627565b5b6000612ec785828601612874565b9250506020612ed885828601612874565b9150509250929050565b7f4e487b7100000000000000000000000000000000000000000000000000000000600052603260045260246000fd5b7f4e487b7100000000000000000000000000000000000000000000000000000000600052601160045260246000fd5b6000612f4b826126ec565b9150612f56836126ec565b9250828203905081811115612f6e57612f6d612f11565b5b92915050565b6000612f7f826126ec565b91507fffffffffffffffffffffffffffffffffffffffffffffffffffffffffffffffff8203612fb157612fb0612f11565b5b600182019050919050565b7f4e487b7100000000000000000000000000000000000000000000000000000000600052603160045260246000fd5b7f4e487b7100000000000000000000000000000000000000000000000000000000600052602260045260246000fd5b6000600282049050600182168061303257607f821691505b60208210810361304557613044612feb565b5b50919050565b7f4552433732313a20617070726f76616c20746f2063757272656e74206f776e6560008201527f7200000000000000000000000000000000000000000000000000000000000000602082015250565b60006130a760218361275a565b91506130b28261304b565b604082019050919050565b600060208201905081810360008301526130d68161309a565b9050919050565b7f4552433732313a20617070726f76652063616c6c6572206973206e6f7420746f60008201527f6b656e206f776e6572206e6f7220617070726f76656420666f7220616c6c0000602082015250565b6000613139603e8361275a565b9150613144826130dd565b604082019050919050565b600060208201905081810360008301526131688161312c565b9050919050565b7f4552433732313a2063616c6c6572206973206e6f7420746f6b656e206f776e6560008201527f72206e6f7220617070726f766564000000000000000000000000000000000000602082015250565b60006131cb602e8361275a565b91506131d68261316f565b604082019050919050565b600060208201905081810360008301526131fa816131be565b9050919050565b7f4552433732313a20696e76616c696420746f6b656e2049440000000000000000600082015250565b600061323760188361275a565b915061324282613201565b602082019050919050565b600060208201905081810360008301526132668161322a565b9050919050565b7f4552433732313a2061646472657373207a65726f206973206e6f74206120766160008201527f6c6964206f776e65720000000000000000000000000000000000000000000000602082015250565b60006132c960298361275a565b91506132d48261326d565b604082019050919050565b600060208201905081810360008301526132f8816132bc565b9050919050565b7f4f776e61626c653a206e6577206f776e657220697320746865207a65726f206160008201527f6464726573730000000000000000000000000000000000000000000000000000602082015250565b600061335b60268361275a565b9150613366826132ff565b604082019050919050565b6000602082019050818103600083015261338a8161334e565b9050919050565b7f4552433732313a207472616e736665722066726f6d20696e636f72726563742060008201527f6f776e6572000000000000000000000000000000000000000000000000000000602082015250565b60006133ed60258361275a565b91506133f882613391565b604082019050919050565b6000602082019050818103600083015261341c816133e0565b9050919050565b7f4552433732313a207472616e7366657220746f20746865207a65726f2061646460008201527f7265737300000000000000000000000000000000000000000000000000000000602082015250565b600061347f60248361275a565b915061348a82613423565b604082019050919050565b600060208201905081810360008301526134ae81613472565b9050919050565b60006134c0826126ec565b91506134cb836126ec565b92508282019050808211156134e3576134e2612f11565b5b92915050565b7f4f776e61626c653a2063616c6c6572206973206e6f7420746865206f776e6572600082015250565b600061351f60208361275a565b915061352a826134e9565b602082019050919050565b6000602082019050818103600083015261354e81613512565b9050919050565b7f4552433732313a20617070726f766520746f2063616c6c657200000000000000600082015250565b600061358b60198361275a565b915061359682613555565b602082019050919050565b600060208201905081810360008301526135ba8161357e565b9050919050565b7f4552433732313a207472616e7366657220746f206e6f6e20455243373231526560008201527f63656976657220696d706c656d656e7465720000000000000000000000000000602082015250565b600061361d60328361275a565b9150613628826135c1565b604082019050919050565b6000602082019050818103600083015261364c81613610565b9050919050565b600081905092915050565b60006136698261274f565b6136738185613653565b935061368381856020860161276b565b80840191505092915050565b600061369b828561365e565b91506136a7828461365e565b91508190509392505050565b7f45524337323155524953746f726167653a2055524920736574206f66206e6f6e60008201527f6578697374656e7420746f6b656e000000000000000000000000000000000000602082015250565b600061370f602e8361275a565b915061371a826136b3565b604082019050919050565b6000602082019050818103600083015261373e81613702565b9050919050565b60008190508160005260206000209050919050565b60006020601f8301049050919050565b600082821b905092915050565b6000600883026137a77fffffffffffffffffffffffffffffffffffffffffffffffffffffffffffffffff8261376a565b6137b1868361376a565b95508019841693508086168417925050509392505050565b6000819050919050565b60006137ee6137e96137e4846126ec565b6137c9565b6126ec565b9050919050565b6000819050919050565b613808836137d3565b61381c613814826137f5565b848454613777565b825550505050565b600090565b613831613824565b61383c8184846137ff565b505050565b5b8181101561386057613855600082613829565b600181019050613842565b5050565b601f8211156138a55761387681613745565b61387f8461375a565b8101602085101561388e578190505b6138a261389a8561375a565b830182613841565b50505b505050565b600082821c905092915050565b60006138c8600019846008026138aa565b1980831691505092915050565b60006138e183836138b7565b9150826002028217905092915050565b6138fa8261274f565b67ffffffffffffffff81111561391357613912612bf7565b5b61391d825461301a565b613928828285613864565b600060209050601f83116001811461395b5760008415613949578287015190505b61395385826138d5565b8655506139bb565b601f19841661396986613745565b60005b828110156139915784890151825560018201915060208501945060208101905061396c565b868310156139ae57848901516139aa601f8916826138b7565b8355505b6001600288020188555050505b505050505050565b7f4572723a20746f6b656e207472616e7366657220697320424c4f434b45440000600082015250565b60006139f9601e8361275a565b9150613a04826139c3565b602082019050919050565b60006020820190508181036000830152613a28816139ec565b9050919050565b600081519050919050565b600082825260208201905092915050565b6000613a5682613a2f565b613a608185613a3a565b9350613a7081856020860161276b565b613a7981612795565b840191505092915050565b6000608082019050613a996000830187612833565b613aa66020830186612833565b613ab36040830185612b57565b8181036060830152613ac58184613a4b565b905095945050505050565b600081519050613adf8161265d565b92915050565b600060208284031215613afb57613afa612627565b5b6000613b0984828501613ad0565b91505092915050565b7f4e487b7100000000000000000000000000000000000000000000000000000000600052601260045260246000fd5b6000613b4c826126ec565b9150613b57836126ec565b925082613b6757613b66613b12565b5b828204905092915050565b6000613b7d826126ec565b9150613b88836126ec565b925082613b9857613b97613b12565b5b828206905092915050565b7f4552433732313a206d696e7420746f20746865207a65726f2061646472657373600082015250565b6000613bd960208361275a565b9150613be482613ba3565b602082019050919050565b60006020820190508181036000830152613c0881613bcc565b9050919050565b7f4552433732313a20746f6b656e20616c7265616479206d696e74656400000000600082015250565b6000613c45601c8361275a565b9150613c5082613c0f565b602082019050919050565b60006020820190508181036000830152613c7481613c38565b905091905056fea2646970667358221220712b40f7007516e576f869f3210d80735ca66cf34026eb31b3eecb3725b76f2064736f6c63430008110033",
  "immutableReferences": {},
  "source": "// SPDX-License-Identifier: MIT\npragma solidity ^0.8.4;\n\nimport \"@openzeppelin/contracts/token/ERC721/ERC721.sol\";\nimport \"@openzeppelin/contracts/token/ERC721/extensions/ERC721URIStorage.sol\";\nimport \"@openzeppelin/contracts/access/Ownable.sol\";\nimport \"@openzeppelin/contracts/utils/Counters.sol\";\n\ncontract SoulBoundToken is ERC721, ERC721URIStorage, Ownable {\n    using Counters for Counters.Counter;\n\n    Counters.Counter private _tokenIdCounter;\n    string private _baseTokenURI;\n\n    mapping(address => uint256[]) private _userInfo;\n\n    mapping(uint256 => address) private _tokenIssuer;\n\n    mapping(address => uint256[]) private _issuedTokens;\n\n    constructor(string memory name_, string memory symbol_)\n        ERC721(name_, symbol_)\n    {}\n\n    function safeMint(address to, string memory uri) public {\n        uint256 tokenId = _tokenIdCounter.current();\n        _tokenIdCounter.increment();\n        _safeMint(to, tokenId);\n        _setTokenURI(tokenId, uri);\n        _tokenIssuer[tokenId] = msg.sender;\n        _issuedTokens[msg.sender].push(tokenId);\n        _userInfo[to].push(tokenId);\n    }\n\n    function _beforeTokenTransfer(\n        address from,\n        address to,\n        uint256 tokenId\n    ) internal virtual override {\n        require(\n            from == address(0) || (to == address(0) && from == msg.sender),\n            \"Err: token transfer is BLOCKED\"\n        );\n\n        super._beforeTokenTransfer(from, to, tokenId);\n    }\n\n    function revokeCertificate(uint256 tokenId) public {\n        _burn(tokenId);\n        address issuer = _tokenIssuer[tokenId];\n        delete _tokenIssuer[tokenId];\n        for (uint256 i = 0; i < _issuedTokens[issuer].length; i++) {\n            if (_issuedTokens[issuer][i] == tokenId) {\n                _issuedTokens[issuer][i] = _issuedTokens[issuer][\n                    _issuedTokens[issuer].length - 1\n                ];\n                break;\n            }\n        }\n        _issuedTokens[issuer].pop();\n        for (uint256 i = 0; i < _userInfo[msg.sender].length; i++) {\n            if (_userInfo[msg.sender][i] == tokenId) {\n                _userInfo[msg.sender][i] = _userInfo[msg.sender][\n                    _userInfo[msg.sender].length - 1\n                ];\n                break;\n            }\n        }\n        _userInfo[msg.sender].pop();\n    }\n\n    function getTokenIssuer(uint256 tokenId) public view returns (address) {\n        return _tokenIssuer[tokenId];\n    }\n\n    function getTokensIssuedByAddress(address Issuer)\n        public\n        view\n        returns (uint256[] memory)\n    {\n        return _issuedTokens[Issuer];\n    }\n\n    function getURIsFromAddress(address tokenOwner)\n        public\n        view\n        returns (string[] memory)\n    {\n        string[] memory URIs = new string[](_userInfo[tokenOwner].length);\n        for (uint256 i = 0; i < _userInfo[tokenOwner].length; i++) {\n            URIs[i] = tokenURI(_userInfo[tokenOwner][i]);\n        }\n        return URIs;\n    }\n\n    // The following functions are overrides required by Solidity.\n\n    function _burn(uint256 tokenId)\n        internal\n        override(ERC721, ERC721URIStorage)\n    {\n        super._burn(tokenId);\n    }\n\n    function tokenURI(uint256 tokenId)\n        public\n        view\n        override(ERC721, ERC721URIStorage)\n        returns (string memory)\n    {\n        return super.tokenURI(tokenId);\n    }\n}\n",
  "sourcePath": "/Users/kalski/github/junction_contracts/contracts/SoulBoundToken.sol",
  "compiler": {
    "name": "solc",
    "version": "0.8.17+commit.8df45f5f.Emscripten.clang"
  },
  "schemaVersion": "3.4.10",
  "updatedAt": "2022-11-05T22:50:13.210Z",
  "networkType": "ethereum",
  "devdoc": {
    "kind": "dev",
    "methods": {
      "approve(address,uint256)": {
        "details": "See {IERC721-approve}."
      },
      "balanceOf(address)": {
        "details": "See {IERC721-balanceOf}."
      },
      "getApproved(uint256)": {
        "details": "See {IERC721-getApproved}."
      },
      "isApprovedForAll(address,address)": {
        "details": "See {IERC721-isApprovedForAll}."
      },
      "name()": {
        "details": "See {IERC721Metadata-name}."
      },
      "owner()": {
        "details": "Returns the address of the current owner."
      },
      "ownerOf(uint256)": {
        "details": "See {IERC721-ownerOf}."
      },
      "renounceOwnership()": {
        "details": "Leaves the contract without owner. It will not be possible to call `onlyOwner` functions anymore. Can only be called by the current owner. NOTE: Renouncing ownership will leave the contract without an owner, thereby removing any functionality that is only available to the owner."
      },
      "safeTransferFrom(address,address,uint256)": {
        "details": "See {IERC721-safeTransferFrom}."
      },
      "safeTransferFrom(address,address,uint256,bytes)": {
        "details": "See {IERC721-safeTransferFrom}."
      },
      "setApprovalForAll(address,bool)": {
        "details": "See {IERC721-setApprovalForAll}."
      },
      "supportsInterface(bytes4)": {
        "details": "See {IERC165-supportsInterface}."
      },
      "symbol()": {
        "details": "See {IERC721Metadata-symbol}."
      },
      "transferFrom(address,address,uint256)": {
        "details": "See {IERC721-transferFrom}."
      },
      "transferOwnership(address)": {
        "details": "Transfers ownership of the contract to a new account (`newOwner`). Can only be called by the current owner."
      }
    },
    "version": 1
  },
  "userdoc": {
    "kind": "user",
    "methods": {},
    "version": 1
  }
}